:020000040800F2
:1000000080F900209D010008B96C0008C14F00086C
:10001000596A000889090008997200080000000068
:10002000000000000000000000000000316E000829
:100030008D09000800000000BD6C0008916F0008E9
:10004000B7010008B7010008B7010008B7010008B0
:10005000B7010008B7010008B7010008B7010008A0
:10006000B7010008B7010008B7010008B701000890
:10007000B7010008B7010008B7010008B701000880
:10008000B7010008B7010008B7010008B701000870
:10009000B7010008B7010008B7010008B701000860
:1000A000B701000851700008B7010008B701000847
:1000B000B7010008B7010008B7010008B701000840
:1000C000B7010008B7010008B7010008B701000830
:1000D000B7010008B7010008B7010008B701000820
:1000E000B7010008B7010008B7010008B701000810
:1000F000B7010008B7010008B7010008B701000800
:10010000B7010008B7010008B7010008B7010008EF
:10011000B7010008B7010008B7010008B7010008DF
:10012000B7010008B7010008B7010008B7010008CF
:10013000B7010008B7010008B7010008B7010008BF
:10014000B7010008B7010008B7010008B7010008AF
:10015000B7010008B7010008B7010008B70100089F
:10016000B7010008B7010008B7010008B70100088F
:10017000B7010008B7010008B7010008000000003F
:10018000B7010008B7010008DFF80CD000F092FBBF
:10019000004800479978000880F900200648804709
:1001A00006480047FEE7FEE7FEE7FEE7FEE7FEE75C
:1001B000FEE7FEE7FEE7FEE73D7000088901000864
:1001C0002DE9F05F0546002092469B46884606468C
:1001D000814640241BE0284641464746224600F01F
:1001E0006BFA53465A46C01A914110D3114618462D
:1001F000224600F052FA2D1A67EB01084F462246BC
:100200000120002100F049FA17EB00094E41201EA1
:10021000A4F10104DFDC484631462A464346BDE8E6
:10022000F09F40EA01039B0703D009E008C9121FB1
:1002300008C0042AFAD203E011F8013B00F8013BA0
:10024000521EF9D27047421C10F8011B0029FBD145
:10025000801A70472DE9FE4F804681EA0300C00FE7
:100260000C46009021F0004123F00045B8EB02005D
:10027000A94105D24046214690461C460B460246FF
:1002800023F00040104347D0270DC7F30A00C3F303
:100290000A510290401A019040286BDAC3F3130010
:1002A00040F4801B0098924620B10023D2EB030A51
:1002B00063EB0B0B01985946C0F14002504600F029
:1002C000ECF906460D4650465946019A00F004FAEC
:1002D00010EB08006141002487EA115284EAE773B9
:1002E0001A4340D0009A62B3019A012A4FEA07529A
:1002F00015DC001B61EB02014FF0004202EA0752DD
:10030000CDE90042001C41F5801132462B4600F039
:100310003BFA03B0BDE8F08F40462146F9E7001BE9
:1003200061EB0201001C41F5801300185B412018AD
:10033000A2F5001747EB030140EAD570B6196D41ED
:1003400011E06D084FEA360645EAC0754FEA0752DC
:10035000001B61EB0201001C41F5801149084FEAC6
:1003600030000019514132462B4603B0BDE8F04F32
:1003700000F0FBB90098012240000023D0EB0202FC
:1003800063EBE073009821464FEAE074B8EB00009D
:1003900061EB0401E9E783F000435BE781F0004192
:1003A00058E72DE9FE4F81EA030404F0004421F0F0
:1003B000004100944FF0000B23F0004350EA010489
:1003C0005ED052EA03045BD0C3F30A54C1F30A556A
:1003D0002C44A4F2F3340194A0FB0254C1F31301A2
:1003E00041F48011C3F3130343F4801301FB02446F
:1003F00000FB034E840A970A44EA815447EA835774
:10040000A4FB076802958D0A05FB07854FEA932C2C
:1004100004FB0C542705029D4FEA065847EA16379D
:10042000B5EB08056EEB070C870E920E47EA8117B5
:1004300042EA8312A7FB0201B6EB0B0164EB000456
:100440002B0D43EA0C335E1844EB1C50DA46514640
:10045000E7FB0201C5F313044FEA0B3343EA1453DD
:100460004FEA0432019C43EA0603A4F10C0402940F
:10047000009CCDE900B400F087F903B0BDE8F08F2F
:1004800000200146F9E72DE9F04D81EA030404F06C
:10049000004B21F0004514464FF0000A23F00041C4
:1004A00050EA050220D054EA01021DD0C5F30A57D4
:1004B0000246C5F31303C1F31300C1F30A5640F417
:1004C000801543F48013A7EB0608101BD64608F2EC
:1004D000FD3873EB050002D308F1010801E0921822
:1004E0005B41B8F1000F03DA00200146BDE8F08D52
:1004F00000204FF48011064684460EE0171B73EB74
:10050000050705D3121B63EB050306434CEA010CF8
:1005100049084FEA300092185B4150EA0107EDD1DB
:1005200052EA030012D082EA040083EA050108437C
:1005300005D0101BAB4106D20122002306E00022A9
:100540004FF0004302E06FF0010253101AEB060077
:100550004CEB085110EB0A0041EB0B01BDE8F04DEC
:1005600000F003B90EB5C10F80EAE0700844CA0775
:10057000002140F233438DE80E000A460B4600F09E
:1005800003F903B000BD0EB540F2334102910021E2
:10059000CDE900110A460B4600F0F6F803B000BDA5
:1005A00070B5C1F30A5201F000450024C1F31301F4
:1005B00040F2FF3341F480119A4201DA002070BD0D
:1005C00040F233439A42A2F2334203DC524200F03B
:1005D00073F800E090402C43F1D0404270BDC1F36D
:1005E0000A5210B5C1F3130140F2FF3341F48011F8
:1005F0009A4201DA002010BD40F233439A42A2F23F
:10060000334203DC524200F057F810BD904010BD59
:1006100000F0004230F000400AD0C10D01F56071D9
:10062000C0F3160042EA0151C20840071143704767
:1006300000200146704701F0004330B421F0004132
:1006400050EA010206D00A0DA2F56072C1F313014F
:10065000002A02DC30BC00207047440F44EAC10489
:10066000C100E01830BC00EBC25000F047B830B514
:100670000B46014600202022012409E021FA02F560
:100680009D4205D303FA02F5491B04FA02F52844FA
:10069000151EA2F10102F1DC30BD202A04DB203A54
:1006A00000FA02F1002070479140C2F1200320FAC5
:1006B00003F3194390407047202A04DB203A21FAC3
:1006C00002F00021704721FA02F3D040C2F120026B
:1006D0009140084319467047202A06DBCB17203A81
:1006E00041FA02F043EAE07306E041FA02F3D04037
:1006F000C2F1200291400843194670470029A8BF63
:100700007047401C490008BF20F00100704710B43A
:10071000B0FA80FC00FA0CF050EA010404BF10BCEF
:10072000704749B1CCF1200421FA04F411FA0CF11C
:1007300018BF012121430843A3EB0C01CB1D4FEA55
:1007400000614FEA102042BF002010BC704700EB50
:10075000C35010440029A4BF10BC7047401C49007E
:1007600008BF20F0010010BC704710B5141E73F1D3
:10077000000408DA401C41F1000192185B411A4361
:1007800001D120F0010010BD2DE9F04D92469B46AD
:1007900011B1B1FA81F202E0B0FA80F22032904653
:1007A000FFF77BFF04460F4640EA0A0041EA0B01CF
:1007B00053465A46084313D0114653EA010019D054
:1007C000C8F140025046FFF777FF05460E465046F7
:1007D00059464246FFF761FF084305D0012004E077
:1007E00020463946BDE8F08D0020054346EAE07614
:1007F0002C4337430A986305E40AA0EB0800002263
:10080000FD0A44EA47540A3002D500200146E9E7D0
:10081000010510196941DDE9084500196941BDE884
:10082000F04DA2E7C1F30A52C1F3130140F2FF33C6
:1008300041F480119A4202DA00200146704740F2EA
:1008400033439A42A2F2334202DC5242FFF734BFF2
:10085000FFF723BF30B5041E71F1000404DB4FF035
:100860000044404264EB0101141E73F1000405DBF7
:100870001C464FF00043524263EB04038B4208BF17
:10088000824230BD30B5041E71F1000404DB4FF02C
:100890000044404264EB0101141E73F1000405DBC7
:1008A0001C464FF00043524263EB0403994208BFD9
:1008B000904230BD1CB5094800900948019005469A
:1008C000009C06E0E06840F0010394E807009847C8
:1008D0001034AC42F6D3FFF75BFC000008D70008E9
:1008E00028D700082DE9F04D00231A461B1A8A412B
:1008F00003DB00200146BDE8F08DC1F30A52C1F3CD
:10090000130141F480154FF0000BD10702D10018FC
:100910006D41521E0027044640F2FF11384601EB9C
:10092000620A3E468046024600204FF48011FFF7DF
:10093000C3FEC2197141BB1846EB0100B4EB030CB6
:1009400075EB000C04D3E41A65EB000517460E4660
:10095000241908F101006D4180463428E3DDF919BE
:1009600046EB0600091BA84103D24FF0FF321346A5
:1009700001E0002213461BEB070046EB0A51BDE8DD
:10098000F04DFFF7F2BE0000FEE7000070470000E8
:1009900072B600BFFEE70000F0B583B040F2F80485
:1009A00042F22000C2F20004C4F6204044F82C0FAA
:1009B00044F24540C2F22000202660600025102746
:1009C0000A201E214FF6FF7200232681CDE9004741
:1009D000029501F0CFFB44F25A5044F22021C2F2BA
:1009E0005200C5F65521C4E900100A2032214FF605
:1009F000FF721F232681CDE90047029501F0BAFB63
:100A000044F6547042F22001C2F25200C4F64D7115
:100A1000C4E900100A2046214FF6FF721F232681E9
:100A2000CDE90047029501F0A5FB45F2526042F284
:100A30002001C2F24F00C4F25351C4E900100A2051
:100A40005A214FF6FF721F232681CDE900470295F8
:100A500001F090FB4520208144F2533045F64711C8
:100A6000C5F24F00C4F65271C4E900100A206E218D
:100A70004FF6FF721F23CDE90047029501F07AFB84
:100A800044F2204044F22011C4F24130C4F2443117
:100A9000C4E900100A2082214FF6FF721F2326812D
:100AA000CDE90047029501F065FB03B0F0BD000001
:100AB0002DE9F04383B040F2F808C2F2000842F298
:100AC0002000C4F62040454645F82C0F44F245402E
:100AD000C2F220004FF020096860002610240A208E
:100AE0001E214FF6FF721F23A5F80890CDE9005490
:100AF000029601F03FFB4FF020370A2032214FF6DB
:100B0000FF721F23A5F80C90C5E90077AF60CDE90F
:100B10000054029601F02EFB0A2046214FF6FF7288
:100B20001F23A5F80C90C5E90077AF60CDE900540C
:100B3000029601F01FFB0A205A214FF6FF721F2375
:100B4000A5F80C90C5E90077AF60CDE90054029696
:100B500001F010FB0A206E214FF6FF721F232E7347
:100B6000C5E90077AF60CDE90054029601F002FBC1
:100B70000A2082214FF6FF721F23A5F80C90C5E9C9
:100B80000077AF60CDE90054029601F0F3FA40F22D
:100B9000B404C2F20004206855F8201C401A03284F
:100BA00015DB98F80000B0FA80F1002840F600400C
:100BB0004FEA51154FF00401C4F2020008BF0221B0
:100BC00002F014F8206888F80050C8F80C0003B050
:100BD000BDE8F083F0B583B040F2F80442F22000A3
:100BE000C2F20004C4F6204044F82C0F44F2454001
:100BF000C2F2200020266060002510270A201E2156
:100C00004FF6FF721F232681CDE90047029501F0C0
:100C1000B1FA44F25A5044F22021C2F25200C5F611
:100C20005521C4E900100A2032214FF6FF7200233B
:100C30002681CDE90047029501F09CFA44F65470F4
:100C400042F22001C2F25200C4F64D71C4E9001014
:100C50000A2046214FF6FF721F232681CDE9004767
:100C6000029501F087FA45F2526042F22001C2F289
:100C70004F00C4F25351C4E900100A205A214FF624
:100C8000FF721F232681CDE90047029501F072FA19
:100C90004520208144F2533045F64711C5F24F00FC
:100CA000C4F65271C4E900100A206E214FF6FF729B
:100CB0001F23CDE90047029501F05CFA44F2204081
:100CC00044F22011C4F24130C4F24431C4E90010AE
:100CD0000A2082214FF6FF721F232681CDE90047AB
:100CE000029501F047FA03B0F0BD00002DE9F04194
:100CF00084B040F2F80444F22020C2F20004C5F6A9
:100D0000552044F82C0F44F25A50C2F252004FF0D2
:100D100020086060002510270A201E214FF6FF7270
:100D20001F23A4F80880CDE90047029501F022FABC
:100D300054F8282C4CF61C21C0F60001204607F080
:100D4000F3F90A2032214FF6FF721F23CDE9004745
:100D5000029501F00FFA4FF020360A2046214FF697
:100D6000FF721F23A4F80C80C4E90066A660CDE9D9
:100D70000047029501F0FEF90A205A214FF6FF7252
:100D80001F23A4F80C80C4E90066A660CDE90047E3
:100D9000029501F0EFF90A206E214FF6FF721F2332
:100DA0002573C4E90066A660CDE90047029501F00D
:100DB000E1F90A2082214FF6FF721F23A4F80C806C
:100DC000C4E90066A660CDE90047029501F0D2F9BA
:100DD00054F8280C002812BF01210020002104B083
:100DE000BDE8F04107F0F6B8F0B583B040F2F80482
:100DF00042F22000C2F20004C4F6204044F82C0F56
:100E000044F24540C2F220002026606000251027F1
:100E10000A201E214FF6FF721F232681CDE90047CD
:100E2000029501F0A7F944F25A5044F22021C2F28F
:100E30005200C5F65521C4E900100A2032214FF6B0
:100E4000FF721F232681CDE90047029501F092F938
:100E500044F6547042F22001C2F25200C4F64D71C1
:100E6000C4E900100A2046214FF6FF7200232681B4
:100E7000CDE90047029501F07DF945F2526042F25A
:100E80002001C2F24F00C4F25351C4E900100A20FD
:100E90005A214FF6FF721F232681CDE900470295A4
:100EA00001F068F94520208144F2533045F647119E
:100EB000C5F24F00C4F65271C4E900100A206E2139
:100EC0004FF6FF721F23CDE90047029501F052F95A
:100ED00044F2204044F22011C4F24130C4F24431C3
:100EE000C4E900100A2082214FF6FF721F232681D9
:100EF000CDE90047029501F03DF903B0F0BD0000D7
:100F00002DE9F04184B040F2F80442F22000C2F230
:100F10000004C4F64D7044F82C0F44F65470C2F22D
:100F200052004FF020086060002510270A201E2183
:100F30004FF6FF721F23A4F80880CDE90047029501
:100F400001F018F954F8242C29A1204607F0ECF8F8
:100F50000A2032214FF6FF721F23CDE90047029588
:100F600001F008F94FF020360A2046214FF6FF72B3
:100F70001F23A4F80C80C4E90066A660CDE90047F1
:100F8000029501F0F7F80A205A214FF6FF721F234D
:100F9000A4F80C80C4E90066A660CDE9004702957C
:100FA00001F0E8F80A206E214FF6FF721F23257327
:100FB000C4E90066A660CDE90047029501F0DAF8C1
:100FC0000A2082214FF6FF721F23A4F80C80C4E987
:100FD0000066A660CDE90047029501F0CBF854F811
:100FE000240C014604B0BDE8F04105F023BF00BF6A
:100FF0002020202020202564202020202000000008
:10100000F0B583B040F2F80442F22000C2F20004CE
:10101000C4F6204044F82C0F44F24540C2F22000B0
:1010200020266060002510270A201E214FF6FF723F
:101030001F232681CDE90047029501F09BF844F279
:101040005A5044F22021C2F25200C5F65521C4E99B
:1010500000100A2032214FF6FF721F232681CDE9AE
:101060000047029501F086F844F6547042F22001E0
:10107000C2F25200C4F64D71C4E900100A204621A4
:101080004FF6FF721F232681CDE90047029501F03C
:1010900071F845F2526042F22001C2F24F00C4F2F0
:1010A0005351C4E900100A205A214FF6FF72002361
:1010B0002681CDE90047029501F05CF845202081AA
:1010C00044F2533045F64711C5F24F00C4F6527151
:1010D000C4E900100A206E214FF6FF721F23CDE9EC
:1010E0000047029501F046F844F2204044F22011F6
:1010F000C4F24130C4F24431C4E900100A20822114
:101100004FF6FF721F232681CDE90047029501F0BB
:1011100031F803B0F0BD00002DE9F04383B040F298
:10112000F80442F22000C2F20004C4F2535044F822
:101130002C0F45F25260C2F24F004FF02009606060
:10114000002510270A201E214FF6FF721F23A4F846
:101150000890CDE90047029501F00CF840F2240810
:10116000C2F20008D8F800204CF61C21C0F600019D
:10117000204606F0D9FF0A2032214FF6FF721F23C6
:10118000CDE90047029500F0F5FF4FF020360A2028
:1011900046214FF6FF721F23A4F80C90C4E90066A5
:1011A000A660CDE90047029500F0E4FF0A205A212D
:1011B0004FF6FF721F23A4F80C90C4E90066A660E6
:1011C000CDE90047029500F0D5FF0A206E214FF6C9
:1011D000FF721F232573C4E90066A660CDE90047AE
:1011E000029500F0C7FF0A2082214FF6FF721F23ED
:1011F000A4F80C90C4E90066A660CDE9004702950A
:1012000000F0B8FFD8F80000FFF7ACF99FED0E0B27
:1012100053EC102BFFF737F99FED0D0B53EC102B10
:10122000FFF7BFF89FED0C0B53EC102BFFF712F8F4
:10123000FFF7D5F940F24C31C2F20001096848636A
:1012400003B0BDE8F08300BF0000000000806640EE
:101250000000000000409F400000000000407F4070
:10126000F0B583B040F2F80442F22000C2F200046C
:10127000C4F6204044F82C0F44F24540C2F220004E
:1012800020266060002510270A201E214FF6FF72DD
:101290001F232681CDE90047029500F06BFF44F241
:1012A0005A5044F22021C2F25200C5F65521C4E939
:1012B00000100A2032214FF6FF721F232681CDE94C
:1012C0000047029500F056FF44F6547042F22001A8
:1012D000C2F25200C4F64D71C4E900100A20462142
:1012E0004FF6FF721F232681CDE90047029500F0DB
:1012F00041FF45F2526042F22001C2F24F00C4F2B7
:101300005351C4E900100A205A214FF6FF721F23DF
:101310002681CDE90047029500F02CFF4520208171
:1013200044F2533045F64711C5F24F00C4F65271EE
:10133000C4E900100A206E214FF6FF720023CDE9A8
:101340000047029500F016FF44F2204044F22011BD
:10135000C4F24130C4F24431C4E900100A208221B1
:101360004FF6FF721F232681CDE90047029500F05A
:1013700001FF03B0F0BD0000F0B581B01F2003F005
:10138000DDFF40F2F000C2F20000006840F2EC071E
:10139000C2F20007FFF73CF99FED230B54EC105B02
:1013A0002A462346FFF76FF89FED210B53EC102BD5
:1013B000FEF7F7FFFFF7F4F806463868FFF728F95D
:1013C0002A462346FFF75FF89FED1B0B53EC102BCB
:1013D000FEF7E7FFFFF7E4F8024640F2080306F1E4
:1013E0004000C2F2000302F1500116F13B0FC3E9C5
:1013F000000101DA052002E07C2801D37B2018607F
:1014000012F14B0F02DA052103E000BF9C2901D342
:101410009B215960012700220523009705F0B4FFA6
:1014200001B0F0BD00BF00BF0000000000805640CA
:101430000000000000804DC00000000000C05240CD
:10144000F0B583B040F2F80442F22000C2F200048A
:10145000C4F6204044F82C0F44F24540C2F220006C
:1014600020266060002510270A201E214FF6FF72FB
:101470001F232681CDE90047029500F07BFE44F250
:101480005A5044F22021C2F25200C5F65521C4E957
:1014900000100A2032214FF6FF721F232681CDE96A
:1014A0000047029500F066FE44F6547042F22001B7
:1014B000C2F25200C4F64D71C4E900100A20462160
:1014C0004FF6FF721F232681CDE90047029500F0F9
:1014D00051FE45F2526042F22001C2F24F00C4F2C6
:1014E0005351C4E900100A205A214FF6FF721F23FE
:1014F0002681CDE90047029500F03CFE4520208181
:1015000044F2533045F64711C5F24F00C4F652710C
:10151000C4E900100A206E214FF6FF721F23CDE9A7
:101520000047029500F026FE44F2204044F22011CC
:10153000C4F24130C4F24431C4E900100A208221CF
:101540004FF6FF7200232681CDE90047029500F097
:1015500011FE03B0F0BD00002DE9F04383B040F26E
:10156000F808C2F2000844F22010C4F244304446A5
:1015700044F82C0F44F22040C4F241304FF02009CF
:101580006060002610250A201E214FF6FF721F23DF
:10159000A4F80890CDE90045029600F0EBFD34F880
:1015A0002A0CFEF7F0FF9FED3A0B53EC102BFEF7E1
:1015B000F8FE9FED390B53EC102BFEF7F2FE0246BE
:1015C0000B4637A1204606F0AFFD0A2032214FF628
:1015D000FF721F23CDE90045029600F0CBFD4FF0CE
:1015E00020370A2046214FF6FF721F23A4F80C90E3
:1015F000C4E90077A760CDE90045029600F0BAFD86
:101600000A205A214FF6FF721F23A4F80C90C4E958
:101610000077A760CDE90045029600F0ABFD0A20F7
:101620006E214FF6FF721F232673C4E90077A7606F
:10163000CDE90045029600F09DFD0A2082214FF67B
:10164000FF721F23A4F80C90C4E90077A760CDE9CE
:101650000045029600F08EFD40F27C14C2F20004B8
:10166000204600F0BBFF20464FF0FF3100F036FF70
:1016700010B103B0BDE8F08340F27C10C2F200006C
:1016800000F046FEA8F8020003B0BDE8F08300BFFA
:10169000000000000000303F6666666666660A402D
:1016A000202020252E3266202020202020202000EF
:1016B0002DE9F04F83B014460A468346DDE90C104D
:1016C00001914CF6BB210028C0F60001CDF800B016
:1016D00000F0D080009E944601F10209002508E048
:1016E0006546AC46029D09F1220901353E2D00F008
:1016F00037814CF6BB27019B05EB0510C0F60007B0
:1017000017F810101A7802959142E9D107EB4000C2
:10171000407859788842E3D10BF10F020CF10F03A6
:101720001FFA8BF01FFA8CF192B29BB2654604F05F
:1017300063FA40F27412C2F200024FF0000A00BFD6
:1017400019F90A701480B7F1FF3F08DC1FFA8BF01B
:10175000A9B203F04DFE40F27412C2F200020BF186
:10176000010080B2811B10297AD05FFA87F85FEA06
:101770004861148006D5A9B203F03AFE40F2741213
:10178000C2F200020BF1020080B2811B102967D067
:101790005FEA8861148006D5A9B203F029FE40F201
:1017A0007412C2F200020BF1030080B2811B1029F7
:1017B00056D05FEAC861148006D5A9B203F018FEBE
:1017C00040F27412C2F200020BF1040080B2811BDD
:1017D000102945D05FEA0871148006D5A9B203F03C
:1017E00007FE40F27412C2F200020BF1050080B253
:1017F000811B102934D05FEA4871148006D5A9B244
:1018000003F0F6FD40F27412C2F200020BF1060082
:1018100080B2811B102923D05FEA8871148006D51D
:10182000A9B203F0E5FD40F27412C2F200020BF11E
:10183000070080B2811B102912D05FEAC8711480A2
:1018400006D0A9B203F0D4FD40F27412C2F2000235
:101850000BF1080B1FFA8BF0801B102802D100BF80
:101860000135B3460AF1010ABAF1200F7FF468AFDF
:1018700037E700BF0BF10F008E1C02F10F011F466E
:1018800093464FF0000A85B288B2029007E000BF8D
:101890000AF1010ABAF13E0F06F1220660D04CF6B9
:1018A000BB21019A0AEB0A10C0F6000111F81010D2
:1018B00012789142ECD14CF6BB21C0F6000101EB4D
:1018C00040000199407849788842E1D10098029B14
:1018D00059462A4604F090F94FF0FF3806EB08000D
:1018E00090F901903846B9F1000F48BF204604F046
:1018F000B7FC5FEA4960384648BF204604F0B0FCB8
:101900005FEA8960384648BF204604F0A9FC5FEAD8
:10191000C960384648BF204604F0A2FC5FEA09705F
:10192000384648BF204604F09BFC5FEA49703846C1
:1019300048BF204604F094FC5FEA8970384648BFEF
:10194000204604F08DFC5FEAC970204608BF384687
:1019500004F086FC08F10108B8F11F0FBED197E72B
:1019600040F28C50C2F200000188408801390138F1
:101970008AB283B20020002103B0BDE8F04F04F02A
:101980003BB900002DE9F04F85B014460A46804669
:10199000DDE90E104DF2F72B0028C0F6000B039185
:1019A000CDF8088000F0D080029E944600274A259A
:1019B0000BE000BF6546049FAC460137072F0BF1D3
:1019C0004A0B4FF04A0500F037814DF2F723039A96
:1019D00007FB05F0C0F60003185C117804978842F5
:1019E000E8D107FB0530517840788842E2D108F110
:1019F00017020CF117031FFA88F01FFA8CF192B24C
:101A00009BB2654604F0F8F840F27412C2F200028C
:101A10004FF0020A1BF90A701480B7F1FF3F08DC8F
:101A20001FFA88F0A9B203F0E3FC40F27412C2F28C
:101A3000000208F1010080B2811B18297AD05FFAF8
:101A400087F95FEA4961148006D5A9B203F0D0FC9A
:101A500040F27412C2F2000208F1020080B2811B4F
:101A6000182967D05FEA8961148006D5A9B203F00E
:101A7000BFFC40F27412C2F2000208F1030080B20F
:101A8000811B182956D05FEAC961148006D5A9B216
:101A900003F0AEFC40F27412C2F2000208F104003E
:101AA00080B2811B182945D05FEA0971148006D5E0
:101AB000A9B203F09DFC40F27412C2F2000208F1D8
:101AC000050080B2811B182934D05FEA4971148067
:101AD00006D5A9B203F08CFC40F27412C2F20002E7
:101AE00008F1060080B2811B182923D05FEA8971B2
:101AF000148006D5A9B203F07BFC40F27412C2F246
:101B0000000208F1070080B2811B182912D05FEA99
:101B1000C971148006D0A9B203F06AFC40F27412B5
:101B2000C2F2000208F108081FFA88F0801B18288A
:101B300002D100BF0135B0460AF1010ABAF14A0FDD
:101B40007FF468AF37E700BF08F1170002F1170113
:101B500080B21F460BF1020690464FF0000A4A255C
:101B6000049088B2019006E00AF1010ABAF1070F69
:101B700006F14A0660D04DF2F7210AFB05F0C0F6E7
:101B80000001085C039909788842EDD14DF2F720F5
:101B9000C0F600000AFB05000399407849788842A6
:101BA000E2D10298049A019B414604F025F84FF0D7
:101BB000FF3900BF06EB090090F901B03846BBF1D0
:101BC000000F48BF204604F04BFB5FEA4B603846ED
:101BD00048BF204604F044FB5FEA8B60384648BFAC
:101BE000204604F03DFB5FEACB60384648BF204604
:101BF00004F036FB5FEA0B70384648BF204604F01D
:101C00002FFB5FEA4B70384648BF204604F028FBA4
:101C10005FEA8B70384648BF204604F021FB5FEA3C
:101C2000CB70204608BF384604F01AFB09F10109C1
:101C3000B9F1470FBED197E740F28C50C2F20000D5
:101C400001884088013901388AB283B2002000211E
:101C500005B0BDE8F04F03F0CFBF00002DE9F04F15
:101C600083B01F4615460A46DDE90C31814600293E
:101C7000CDE9005300F0CE804DF2FD44C0F60004E3
:101C8000174604F1020B00254E460BE0029D019B16
:101C900001354DF2FD44042D0BF1820BC0F600041A
:101CA00000F0F88105EB851014F810101A780295F1
:101CB0009142EBD104EB4000407859788842E5D15D
:101CC00006F11F0207F11F03B0B2B9B292B29BB284
:101CD00003F092FF40F27412009DC2F200024FF036
:101CE000000800BF1BF908401580B4F1FF3F07DC76
:101CF000B0B2B9B203F07CFB40F27412C2F200023F
:101D0000701C80B2A0EB0901202979D05FFA84FA17
:101D10005FEA4A61158006D5B9B203F069FB40F26B
:101D20007412C2F20002B01C80B2A0EB090120299B
:101D300066D05FEA8A61158006D5B9B203F058FB18
:101D400040F27412C2F20002F01C80B2A0EB090152
:101D5000202955D05FEACA61158006D5B9B203F0D3
:101D600047FB40F27412C2F20002301D80B2A0EBB9
:101D70000901202944D05FEA0A71158006D5B9B25D
:101D800003F036FB40F27412C2F20002701D80B202
:101D9000A0EB0901202933D05FEA4A71158006D5EE
:101DA000B9B203F025FB40F27412C2F20002B01D7A
:101DB00080B2A0EB0901202922D05FEA8A71158048
:101DC00006D5B9B203F014FB40F27412C2F200025D
:101DD000F01D80B2A0EB0901202911D05FEACA7181
:101DE000158006D0B9B203F003FB40F27412C2F2C0
:101DF00000020836B0B2A0EB0900202802D100BFD3
:101E000001374E4608F10108B8F1800F7FF46AAF40
:101E10003CE700BF187809F11F01D728934602F16B
:101E20001F0A029150D101984078D6284CD10298CF
:101E30001FFA8AF382B24846594603F0DDFE4DF29E
:101E4000FD444FF0FF36C0F6000400BFA01990F922
:101E500003803846B8F1000F48BF284604F000FA66
:101E60005FEA4860384648BF284604F0F9F95FEA5F
:101E70008860384648BF284604F0F2F95FEAC86037
:101E8000384648BF284604F0EBF95FEA0870384648
:101E900048BF284604F0E4F95FEA4870384648BF76
:101EA000284604F0DDF95FEA8870384648BF2846C6
:101EB00004F0D6F95FEAC870284608BF384604F037
:101EC000CFF901367F2EC1D101980078CC2848D1B6
:101ED00001984078E52844D102981FFA8AF382B22B
:101EE0004846594603F088FE4DF2FD40C0F600001A
:101EF00000F183044FF0800814F9016F3846002E7A
:101F000048BF284604F0ACF97006384648BF28465A
:101F100004F0A6F9B006384648BF284604F0A0F9F8
:101F2000F006384648BF284604F09AF9300738468C
:101F300048BF284604F094F97007384648BF284641
:101F400004F08EF9B007384648BF284604F088F9F7
:101F5000F007284608BF384604F082F9B8F10108B6
:101F6000CAD101980078B22849D101984078E22876
:101F700045D102981FFA8AF382B24846594603F0C7
:101F80003BFE4DF2FD40C0F6000000F205144FF09C
:101F9000800800BF14F9016F3846002E48BF28465C
:101FA00004F05EF97006384648BF284604F058F938
:101FB000B006384648BF284604F052F9F0063846C5
:101FC00048BF284604F04CF93007384648BF284639
:101FD00004F046F97007384648BF284604F040F937
:101FE000B007384648BF284604F03AF9F0072846BB
:101FF00008BF384604F034F9B8F10108CAD1019994
:102000000878CA2846D14878D42843D102981FFAC4
:102010008AF382B24846594603F0EEFD4DF2FD4088
:10202000C0F60000009C00F28718802618F9015FB6
:102030003846002D48BF204604F012F9680638469D
:1020400048BF204604F00CF9A806384648BF204691
:1020500004F006F9E806384648BF204604F000F9C7
:102060002807384648BF204604F0FAF86807384683
:1020700048BF204604F0F4F8A807384648BF204679
:1020800004F0EEF8E807204608BF384604F0E8F808
:10209000013ECBD140F28C50C2F200000188408852
:1020A000013901388AB283B20020002103B0BDE8B3
:1020B000F04F03F0A1BD0000F0B585B040F600047C
:1020C0008C20C4F202048DF8130020460221002265
:1020D000002600F093FD40F2AC25C2F200050DF1A0
:1020E0001301284601224FF47A7301F00DFC03A975
:1020F000284607224FF47A7301F006FB204602219E
:10210000012200F07BFDBDF80D0040F2C807C2F2CD
:102110000007DDF80F10F8809220B9608DF81300E9
:1021200020460221002200F069FD0DF1130128462E
:1021300001224FF47A7301F0E7FB03A92846072236
:102140004FF47A7301F0E0FA20460221012200F0F8
:1021500055FDBDF80D00DDF80F103880C7F80210EE
:1021600000200021002200230096019602F02CFF9F
:1021700005B0F0BD2DE9F04383B00DF1280999E8D1
:1021800040031C46304615460F46FEF75CF840F209
:102190008C51C2F200014FF6F8720988C0F20702B2
:1021A00002EAC000081A00EBD070C0F34F003946B5
:1021B0002A462346CDE90068CDF8089004F06CFE6D
:1021C00003B0BDE8F083000070B581B0002200923A
:1021D00090F83C20012A03D10221084601B070BDCD
:1021E0000E6801220A2E80F83C2009D3B2B25200B8
:1021F000D0F800E012FA86F21E3A0EF10C0305E068
:10220000D0F800E006EB46020EF110034FF0070C89
:102210001D680CFA02F4A5431D608D681C6805FA60
:1022200002F222431A60496806290FD801EB8101A6
:102230004A1F71461F2351F8345F934025EA030378
:102240000B60B3B203FA02F214E000BF01EB8103AA
:102250000C29B2B204D8714651F8304F233B03E049
:10226000714651F82C4F413B1F259D4024EA05053E
:102270009A400D600B6842F2043CC4F2010C1A4310
:10228000ACF541739E450A603BD1122E06D1DCF8B5
:10229000001041F48001CCF8001032E026F001017A
:1022A00010292ED1DCF80010102E41F40001CCF8DA
:1022B000001026D140F22001C2F2000109684DF65B
:1022C0008362C4F21B32A1FB0212910C01EB81016B
:1022D000490000910099A1B100990139009100993C
:1022E00079B1009901390091009951B100990139F2
:1022F0000091009929B100990139009100990029B4
:10230000EAD1002180F83C10084601B070BD000001
:102310000068C06C70470000002804BF01207047AF
:1023200010B50446006C00283ED0206CC00645D491
:10233000206C41F202118843023042F204312064E1
:10234000C4F20101086820F4403008600A6894E88B
:1023500009101A43D4F810E00A604168012321F4FF
:10236000807141604168C0F6007341EA0E2141600E
:10237000416821F040714160416841EA0C014160CF
:10238000816821F400618160E168826811438160A5
:10239000A16A8268994222F070628260826813D1D9
:1023A00022F0405119E000BF204600F065F80020FF
:1023B000606484F83C00206CC006B9D5012000217F
:1023C00084F83C1010BD00BF11438160816821F08A
:1023D00040518160E16A826811438160816821F027
:1023E000020181608168227E94F8203041EA420136
:1023F0008160416883B141F40061416041684EF2FF
:10240000000221F460414160616ACFF6FF724368C7
:1024100002EB4131194301E021F400614160C16ADE
:1024200040F2000C21F47001C162E2696169CFF6EB
:10243000F07CC36A0CEB02521A43C262826822F437
:102440000072826094F83020836843EA42228260FE
:10245000826822F480628260826842EA812181601F
:1024600000206064216C012262F3010121640021DB
:1024700084F83C1010BD000080B586B042F2000127
:102480000068C4F20101002288420592049201D042
:1024900006B080BD43F630000092C4F202004369EA
:1024A00043F480734361436903F480730093009B9A
:1024B0000092036843F001030360006800F001002C
:1024C00000900098202001900320CDE9020201F540
:1024D000604001A900F0B4FA06B080BD70B50446B2
:1024E00000680D468268520544BF80685FEAC050AC
:1024F00038D400F089FB21680A68920749D406465F
:10250000681C3CD0DDB90868800721D508688007C1
:102510003FD4086880071BD50868800739D408684D
:10252000800715D50868800733D4086880070FD561
:1025300008688007E7D52CE00868800729D400F0F8
:1025400063FB801B2168A842F6D908688007F3D492
:10255000206C40F004002064002084F83C0003203C
:1025600070BD00BF206C40F020002064002084F883
:102570003C00012070BD00BF0868800709D40868CE
:10258000800706D4086880075CBF08685FEA80702F
:10259000F2D56FF012000860206C40F400702064E7
:1025A000886810F0405F01D0002070BD207E0028B8
:1025B000FAD1C86A10F4700F02D088684005F3D4CD
:1025C000206C20F480702064206CC004ECD4206C5B
:1025D00040F001002064002070BD000010B581B003
:1025E0000021009190F83C10012903D1022001B094
:1025F00010BD00BF0468012180F83C10214651F84D
:10260000083FDB0729D10B684DF6836243F00103D5
:102610000B6040F22003C2F200031B68C4F21B32BD
:10262000A3FB02239A0C02EB42020092009AA2B191
:10263000009A013A0092009A7AB1009A013A009207
:10264000009A52B1009A013A0092009A2AB1009A77
:10265000013A0092009A002AEAD10A68036CD20774
:102660000CD143F01001016400F1440101200A681B
:1026700010430860002001B010BD00BF40F201729D
:1026800023EA020202F5807202646268520504D5F0
:10269000026C012363F30D320264026C4FF0000EF2
:1026A0000023D20444BF426C22F0060342F2043CF1
:1026B000436480F83CE06FF02200C4F2010C20601B
:1026C000DCF80000C0060DD0ACF5417084422BD17F
:1026D0004FF60450CFF6FF705CF8000010F0405F3A
:1026E00022D125E042F20000C4F20100844217D05A
:1026F00042F20020C4F2010084420DD042F20010E8
:10270000C4F2010084420FD1DCF80000C00607D0FB
:10271000ACF58270844207D1DCF80000C00603D417
:10272000086810F0405F03D0002001B010BD00BF6A
:102730004FF080409BE70000002804BF0120704755
:10274000B0B5044690F8200010B9204600F06EF8AD
:102750002068016841F00101016000F055FA05466A
:1027600020684168C90705D100F04EFA401B0B28CC
:10277000F6D310E0016821F00201016000F044FA94
:10278000054600BF2068416889070DD500F03CFA76
:10279000401B0B28F6D3606A052140F400306062CC
:1027A000012084F82010B0BD217E0268012922F0AA
:1027B000800208BF80320260617E0268012922F037
:1027C000400208BF40320260A17E0268012922F067
:1027D000200208BF20320260E17E0268012922F057
:1027E000100218BF10320260217F0268012922F016
:1027F000080208BF08320260617F0268012922F0E6
:10280000040208BF04320260D4E901C2D4E90335EE
:1028100061691A432A431143ACF101021143C161BA
:1028200000200121606284F82010B0BD016846F2EA
:102830000040C4F20000814218BF704780B586B0E6
:10284000002143F630020191C4F20202136900F53F
:10285000CE3043F000731361136903F000730193EA
:10286000019B0191136843F001031360126802F0A9
:1028700001020192019A4FF4C05201920222CDE965
:102880000221032104910921059101A900F0D8F842
:1028900006B0BDE88040704700284FF0010318BF24
:1028A000002901D1184670474379012B4FF00203EC
:1028B000F8D010B50371036802F0100ED3F800C011
:1028C000D1E9001440F6FE7202FA0EF221432CEA1E
:1028D000020201FA0EF111431960C0211A6801FACF
:1028E0000EF122EA010119600121002301714371F7
:1028F000BDE8104018467047002804BF012070470B
:1029000010B50446007920B900206071204600F01F
:1029100007F802202071002001212061217110BDE3
:1029200080B586B047F200410068C4F20001002281
:1029300088420592049201D006B080BD43F6300073
:102940000092C4F20200036943F00053036103697B
:1029500003F000530093009B0092036843F00103CF
:102960000360006800F001000090009810200190C2
:102970000320CDE9020201F5C63001A900F060F89C
:1029800006B080BD81B04FF0000CCDF800C068B13A
:102990000068002900900098104414BF14300830DB
:1029A000009000980360002001B07047012001B042
:1029B00070470000002804BF012070474279012AB7
:1029C0004FF0020226D010B50271026801F0100E1D
:1029D0004FF0010C14680CFA0EF323431360D2F885
:1029E00000C049B13C230CF4701103FA0EF3994274
:1029F0000AD1022105E000BF0CF03C013C2903D1C3
:102A00000121536819435160012100220171427173
:102A1000BDE8104010467047B0B5044600F0F4F829
:102A2000054640F21000C2F200000078611C18BF99
:102A3000044400BF00F0E8F8401BA042FAD3B0BD48
:102A40002DE9F04F82B000F13E4707F1FF77860590
:102A500046EA972741F60046C4F20206082243F6EA
:102A6000004EB04208BF0722C4F2010E072F38BF44
:102A70003A46002600274FF00008009209E000BF08
:102A800008F101080237B8F1100F06F1040600F052
:102A9000A3800D68012202FA08F415EA0409EFD0B8
:102AA000D1F804B003220BF0030CACF10105BA40DD
:102AB000012D6FEA020A0FD88268CD6802EA0A0285
:102AC000BD402A4382604268A243CBF3001404FA5B
:102AD00008F42243426005E0BCF1030F02D14FF03D
:102AE000030C1EE0C2688C6802EA0A02BC40224362
:102AF000BCF1020FC26014D16FF0030202EA580267
:102B00000244D2F820C006F01C040F230D69A34034
:102B10002CEA0303A5402B431362D1F804B00BF059
:102B2000030C02680CFA07F302EA0A021A431BF4C8
:102B3000403F0260A4D0002243F644030192C4F255
:102B400002031A684FF6084C42F480421A601A6871
:102B5000CFF6FF7C02F480420192019A28F0030232
:102B6000724452F80C3006F00C050F24AC40A3431D
:102B7000009C04FA05F52B4342F80C30DEF80820DF
:102B80004B6842EA090543F60C4CDC0258BF22EAC6
:102B90000905CEF80850C4F2010CDCF800209C02B4
:102BA00042EA090558BF22EA0905CCF80050DEF8D0
:102BB00004209C0342EA090558BF22EA0905CEF821
:102BC0000450DEF80020DB0342EA090558BF22EA80
:102BD0000905CEF8005053E702B0BDE8F08F0000C1
:102BE0000069084018BF012070470000426902EAEE
:102BF0000103914341EA034181617047002A08BF04
:102C000009048161704700004FF27850C2F2000061
:102C100000687047002804BF01207047F0B581B0FC
:102C2000044690F83D0028B9002084F83C00204676
:102C300000F0A2F8242084F83D002068016821F00B
:102C400001010160016841F400410160016821F463
:102C50000041016000F050FA636848F2A16CC0F2D4
:102C6000010C40F60011C0F23D0163453CBF48F243
:102C70008041C0F21E01884202D2012001B0F0BDA5
:102C80004DF68361C4F21B31A0FB01122168970C41
:102C9000D1F804E04FF496762EF03F0545EA9245D0
:102CA0004D60774348F638160D6AC0F24106A7FB1F
:102CB000067625F03F07634538BF960C721C3A43F1
:102CC0000A62CA6948F2A0664CF6FF77C0F20106B4
:102CD000B34222EA07020BD801385B00B0FBF3F0E5
:102CE00001306FF31F30042898BF04201BE000BFA1
:102CF000A768013857B119277B43B0FBF3F00130C7
:102D00006FF31F3070B100F5804007E003EB430321
:102D1000B0FBF3F001306FF31F3018B100F5004045
:102D200001E000BF01201043C8610868D4E907230F
:102D300020F0C000104318430860886848F2FF3252
:102D400004F10C0790438CCF18431043A6698860A8
:102D5000C86820F0FF0038433043C860086840F07E
:102D60000100086000202021206484F83D102063C9
:102D700084F83E0001B0F0BD2DE9F04786B0006850
:102D800045F60047C4F20007B84203D006B0BDE8DC
:102D9000F08700BF002643F630050196C4F2020515
:102DA000286801AC40F00400286028684FF0120841
:102DB00000F0040001900198019628684FF0030983
:102DC00040F00100286028684FF0040A00F001007C
:102DD000019001984FF40070019007F5D63021461C
:102DE000CDE90286CDF81090CDF814A0FFF728FEAB
:102DF0004FF48070CDE9010803A880E8400607F58C
:102E0000D2302146FFF71CFE0096286940F40000EE
:102E10002861286900F400000090009806B0BDE821
:102E2000F087000040F210004FF27851C2F200002B
:102E3000C2F2000100780A68104408607047000080
:102E400080B543F60040C4F20200016841F400710D
:102E50000160016841F480610160016841F48071A2
:102E60000160032000F086F8002000F005F800F073
:102E700027F8002080BD000070B540F21006C2F2B5
:102E8000000640F220013278C2F200014FF47A735A
:102E90000968B3FBF2F20446B1FBF2F1084601F017
:102EA00025F80F2C4FF0010508D838B94FF0FF3046
:102EB00021460022002500F031F87460284670BDDC
:102EC00082B0002043F640010190C4F202014A683A
:102ED00042F480424A604A6802F480420192019AB8
:102EE0000090086840F080500860086800F080504A
:102EF0000090009802B07047002848BF704700F06B
:102F00001F01012202FA01F11C2202EAD0004EF256
:102F10000012CEF2000281507047000010B54EF64C
:102F20000C5CCEF2000CDCF80030C3F3022E8EF005
:102F30000704042C28BF0424BEF103034FF0FF3E16
:102F40000EFA04F438BF0023A14399400EFA03F3AC
:102F50009A43114300F00F0200F160430901043A63
:102F600003F564436244002848BF02F10C03197062
:102F700010BD00004EF60C51CEF200010A684FF66B
:102F8000FF031A4060F30A2242F0806040F0FD70B7
:102F900008607047002804BF012070472DE9F04108
:102FA00043F60808C4F202080446D8F8F8030D46B0
:102FB00000F00700884207D288F8F853D8F8F803E1
:102FC00000F00700A84277D12068810717D5410794
:102FD00005D5D8F8001041F4E051C8F800100107F9
:102FE00005D5D8F8001041F46041C8F80010D8F8B1
:102FF0000010A26821F0F0011143C8F80010C007CA
:1030000040D1D8F8F80300F00700A84207D988F8A3
:10301000F853D8F8F80300F00700A8424CD1206814
:10302000410707D5D8F80010E26821F4E0511143B8
:10303000C8F80010000708D5D8F80000216920F46E
:10304000604040EAC100C8F8000000F07DF8D8F800
:10305000001049F68072C1F30311C0F60002515C02
:1030600040F2200220FA01F140F21400C2F2000006
:103070000068C2F200021160FFF7FEFE0020BDE80A
:10308000F08100BF6068811E022907D258F8081C31
:1030900089015CBF0120BDE8F08111E0012807D162
:1030A00058F8081C89035CBF0120BDE8F08107E0E7
:1030B00058F8081C890703D40120BDE8F08100BF3F
:1030C000D8F8001021F003010843C8F80000FFF70A
:1030D0009BFD064641F28837D8F80000616800F091
:1030E0000C00B0EB810F8CD0FFF78EFD801BB84237
:1030F000F2D90320BDE8F08140F2200043F6080138
:10310000C2F20000C4F202010068096849F6907238
:10311000C1F38221C0F60002515CC8407047000034
:1031200040F2200043F60801C2F20000C4F202019E
:103130000068096849F69072C1F34231C0F6000296
:10314000515CC8407047000010B543F60404C4F257
:103150000204606800F00C0008280BD0042819BF96
:1031600042F20040C0F2F40047F64000C0F27D1089
:1031700010BD00BF206821682368490247F640015E
:10318000C0F27D1100F03F02C3F388105CBF42F231
:103190000041C0F2F401A1FB00010023FDF710F88B
:1031A00021680222C1F3014102EB4101B0FBF1F0C1
:1031B00010BD0000002804BF012070472DE9F04138
:1031C00082B00446007843F60006C007C4F2020647
:1031D0000CD0B06800F00C00042840F0818030680A
:1031E000800303D56068002800F06A81207880079A
:1031F0001BD5B06810F00C0F09D0B06800F00C00BF
:10320000082840F087807068400200F183803068B1
:10321000800703D5E068012840F0528130682169B9
:1032200020F0F80040EAC10030602078000713D495
:10323000207840072AD4A569002D00F03C81B068B1
:1032400000F00C00082840F0A180012D40F0108112
:10325000012002B0BDE8F0816069002840F2000062
:10326000C4F2472000F07E800121C0F8801EFFF7E5
:10327000CBFC0546706F8007DAD4FFF7C5FC401B16
:103280000228F7D9032002B0BDE8F081306C5FEA74
:10329000C0080AD400200190306C40F080503064A7
:1032A000306C00F080500190019847F20007C4F2A2
:1032B00000073868C00547D4386840F4807038602B
:1032C000FFF7A2FC054600BF3868C0053CD4FFF7F5
:1032D0009BFC401B0228F7D9032002B0BDE8F08117
:1032E000B06800F00C00082803D1706840023FF578
:1032F00076AF6068B0F5803F07D0B0F5A02F40F002
:103300009B80306840F480203060306840F480302A
:1033100030609BE0E06800285CD00020C4F24720C9
:1033200001210160FFF770FC054600BF306880078F
:103330003FF574AFFFF768FC401B0228F6D9032065
:1033400002B0BDE8F08100BFA068012805D00528C3
:1033500054D1306F40F004003067306F40F001000E
:10336000306755E00021C0F8801EFFF74DFC054690
:10337000706F80077FF55CAFFFF746FC401B0228AB
:10338000F6D9032002B0BDE8F08100BF0027C4F2E7
:10339000472700203866FFF737FC022D05460DD180
:1033A0003068800140F19080FFF72EFC401B02281E
:1033B0004FF00300F4D902B0BDE8F081306880011D
:1033C00079D5FFF721FC401B02284FF00300F5D907
:1033D000F1E700BF0020C4F2472000210160FFF7A1
:1033E00013FC0546306880077FF51FAFFFF70CFC24
:1033F000401B02284FF00300F4D9DCE7316F0028AE
:1034000021F001013167316F21F0040131677DD076
:10341000FFF7FAFB054641F2883700BF306F80079F
:1034200000F18680FFF7F0FB401BB842F6D903207D
:1034300002B0BDE8F08100BF3168002821F480317E
:103440003160316821F4802131607BD0FFF7DCFBF3
:10345000054600BF306880033FF5C8AEFFF7D4FBD8
:10346000401B6428F6D9032002B0BDE8F08100BFFC
:103470007068E16900F480028A4221D1216A00F07B
:103480003F028A421CD147F6C071626A0140B1EB2B
:10349000821F15D1A16A4FF6FF73C903994300F447
:1034A0004032A1F580318A420AD1E16A00F07060B1
:1034B000B0EB016F04D1002002B0BDE8F08100BF85
:1034C000012002B0BDE8F08104F11C052FCD0843B6
:1034D00040EA8210D9034FF6FF729143A1F5803183
:1034E00040EA05600843706001203866FFF78CFBF6
:1034F000044600BF30688001DDD4FFF785FB001B68
:1035000002284FF00300F5D955E700BFFFF77CFB19
:10351000054641F2883700BF306F800708D5FFF7B6
:1035200073FB401BB8424FF00300F5D943E700BFDF
:10353000B8F1000F3FF57FAE306C20F08050306462
:1035400079E600BFFFF760FB054600BF30688003E7
:103550007FF54CAEFFF758FB401B64284FF003008B
:10356000F4D928E770B538B10446406A30B100207C
:10357000206104F1140007E0012070BD6068B0F51F
:10358000827F03D004F11C00002101600026A662A6
:1035900094F8510020B9204684F8506000F03CF8BF
:1035A000022084F8510094E80F0001F4827105684C
:1035B00002F4044225F040050560114403F4006262
:1035C0002369114403F002026369114403F001020C
:1035D000A369E569114403F40072114405F038024F
:1035E000256A114405F08002A56A114305F40052D2
:1035F00011430160626A042101EA134102F01002E2
:1036000011444160C16921F40061C1610120666516
:1036100084F85100304670BDF0B587B0006843F6BD
:10362000000140F20044C4F20001C4F2020400258B
:103630008842CDE90555CDE90355029526D043F2E0
:103640000001C4F2010188425CD1002043F6300140
:103650000190C4F202014A6942F480524A614A6907
:1036600002F480520192019A01900A6842F002022B
:103670000A60096801F00201019101992821029173
:103680000221CDE903100320059035E043F6300018
:103690000195C4F202000169022641F480410161F2
:1036A0000169032701F480410191019901950168A5
:1036B00041F004010160016801F0040101910199E8
:1036C0000195016841F002010160006802A900F063
:1036D0000200019001980C2002900520069004F54C
:1036E0008060CDE903650597FFF7AAF94FF4005014
:1036F000CDE90206CDE904570520069002A920462F
:10370000FFF79EF907B0F0BD2DE9F04182B0044605
:1037100090F85100012819D160681D4617460E46E1
:10372000B0F5827F01D1A068A0B1FFF76DFA8046A5
:10373000002E4FF0010018BF002F03D102B0BDE8EA
:10374000F08100BF94F85000012811D1022002B08E
:10375000BDE8F081042084F851002046314632460D
:103760003B46009500F00EFA02B0BDE8F08100BFC4
:10377000012084F850000420002184F85100616584
:10378000A663A787E7872163A186E186A2682068F0
:10379000B2F5004F2164616438D00168490640D514
:1037A000E168E08F002944D000287BD0681C0CD150
:1037B0001BE000BFC068A16B21F8020BA163E08F82
:1037C0000138E087E08F00286CD020688168C90745
:1037D000F0D1FFF719FAA0EB0800A842F2D342E0BB
:1037E000FFF712FAE08F00285CD020688168C907D3
:1037F000F6D0C068A16B21F8020BA163E08F0138FD
:10380000E087E08F0028F0D14CE000BF016821F094
:1038100040010160016821F48041016001684906AE
:10382000BED4016841F040010160E168E08F0029E9
:10383000BAD1B8B3681C0CD124E000BF007BA16BE7
:103840000870A06B0130A063E08F0138E087E08F43
:1038500040B320688168C907F0D1FFF7D5F9A0EB24
:103860000800A842F3D3012084F85100002084F816
:103870005000032002B0BDE8F08100BFFFF7C4F99B
:10388000E08F78B120688168C907F7D0007BA16B11
:103890000870A06B0130A063E08F0138E087E08FF3
:1038A0000028EFD16068B0F5827F0ED1A068B0F536
:1038B000004F02D0B0F5806F0AD12168B0F5806F5B
:1038C0000A6822F040020A6002D12046012101E08C
:1038D0002046802100222B46CDF8008003F0FAF923
:1038E00028B1606D40F020006065202060650120F7
:1038F00084F85100002084F85000606D002818BF43
:10390000012002B0BDE8F0812DE9F04184B01D46F0
:1039100016460F460446FFF777F994F8511001292F
:103920000ED18046002F4FF0010018BF002E03D1AA
:1039300004B0BDE8F08100BF94F85000012803D125
:10394000022004B0BDE8F081012084F8500003207B
:10395000002184F8510061652763A686E686A1638D
:10396000A187E187A0682164B0F5004F20686164F9
:1039700007D1016821F040010160016841F48041F4
:1039800001600168490603D4016841F0400101600B
:103990006168731EE268B1FA81F1B3FA83F34909F1
:1039A0005B09B2F5006F41EA030139D131B137F853
:1039B000021BC1602763E08E0138E086E08E00289C
:1039C00070D0681C0BD11AE0216B31F8022BC26059
:1039D0002163E08E0138E086E08E002862D0206806
:1039E00081688907F0D4FFF70FF9A0EB0800A8421F
:1039F000F2D338E0FFF708F9E08E002852D02068B3
:103A000081688907F6D5216B31F8022BC2602163EA
:103A1000E08E0138E086E08E0028F0D142E000BF61
:103A200039B139780173206B01302063E08E0138A1
:103A3000E086E08EB0B3681C0BD123E0216B0978DF
:103A40000173206B01302063E08E0138E086E08E48
:103A500040B3206881688907F0D4FFF7D5F8A0EB60
:103A60000800A842F3D3012084F85100002084F814
:103A70005000032004B0BDE8F08100BFFFF7C4F898
:103A8000E08E78B1206881688907F7D5216B0978C5
:103A90000173206B01302063E08E0138E086E08EF8
:103AA0000028EFD12046022101222B46CDF80080CC
:103AB00003F010F9E0B1606D40F020006065202057
:103AC0006065A06838B9002002902068C168029142
:103AD000806802900298012084F85100002084F848
:103AE0005000606D002818BF012004B0BDE8F081CF
:103AF00040F22000C2F20000006849F68171C1F274
:103B00005E61A0FB0101480D4FF47A7148430390B8
:103B10006068B0F5827F0BD12046802100222B46C1
:103B2000CDF8008003F0D6F80028C4D1C9E700BF63
:103B300003980028C5D00398013803902068806856
:103B40000006BED503980028BBD003980138039027
:103B5000206880680006B4D503980028B1D0039887
:103B600001380390206880680006AAD503980028D1
:103B7000A7D0039801380390206880680006D7D446
:103B80009FE700002DE9F04383B01E4615460F461F
:103B90000446FFF739F894F851108146012909D1FC
:103BA000002F4FF0010018BF002D0FD103B0BDE86A
:103BB000F08300BF6068B0F5827F0DD104294FF01B
:103BC0000200F3D1A1680029EAD0EFE7002EEDD082
:103BD00094F85000012803D1022003B0BDE8F0831F
:103BE000012084F8500094F85100002104281CBFE3
:103BF000052084F851006165A563E687A6872763E1
:103C0000E6862068A686216461640168490603D4BB
:103C1000016841F0400101606168731EE268B1FA19
:103C200081F1B3FA83F3DDF8288049095B09B2F525
:103C3000006F41EA030165D131B137F8021BC16061
:103C40002763E08E0138E086012518F1010032D1AA
:103C500002E000BFFEF7D8FFE08E18B9E08F002821
:103C600000F0B8802068816889070CD5E18E51B1D9
:103C7000012D08D1216B002531F8022BC260216390
:103C8000E18E0139E1868168C907E3D0E18F00291F
:103C9000E0D0C068A16B012521F8020BA163E08F81
:103CA0000138E087D6E700BFFEF7AEFFA0EB0900C2
:103CB000404580F0A580E08E18B9E08F002800F024
:103CC00089802068816889070CD5E18E51B1012D6A
:103CD00008D1216B002531F8022BC2602163E18EEF
:103CE0000139E1868168C907DED0E18F0029DBD088
:103CF000C068A16B012521F8020BA163E08F013898
:103D0000E087D1E739B139780173206B0130206346
:103D1000E08E0138E086012518F1010032D101E082
:103D2000FEF772FFE08E10B9E08F002852D02068B5
:103D3000816889070ED5E18E61B1012D0AD1216B11
:103D4000002509780173216B206801312163E18E20
:103D50000139E1868168C907E2D0E18F0029DFD00F
:103D6000C068A16B01250870A06B0130A063E08FD3
:103D70000138E087D4E700BFFEF746FFA0EB09005B
:103D800040453DD2E08E08B9E08F18B320688168C5
:103D900089070ED5E18E61B1012D0AD1216B002575
:103DA00009780173216B206801312163E18E0139AB
:103DB000E1868168C907DFD0E18F0029DCD0C068C7
:103DC000A16B01250870A06B0130A063E08F013862
:103DD000E087D1E72046022101224346CDF800903A
:103DE00002F078FFB0B1606D40F0200060652020E7
:103DF0006065002084F85000012003B0BDE8F08326
:103E0000012084F85100002084F85000032003B002
:103E1000BDE8F08340F22000C2F20000006849F6DD
:103E20008171C1F25E61A0FB0101480D4FF47A710E
:103E3000484302906068B0F5827F21D120468021FE
:103E400000224346CDF8009002F044FF0028CAD17A
:103E5000A06838B9002001902068C168019180688D
:103E600001900198012084F85100002084F850004E
:103E7000606D002818BF012003B0BDE8F08300BFCB
:103E800002980028E4D002980138029020688068E7
:103E90000006DDD502980028DAD002980138029099
:103EA000206880680006D3D502980028D0D00298F8
:103EB00001380290206880680006C9D50298002861
:103EC000C6D0029801380290206880680006D7D4D6
:103ED000BEE700004EF21001CEF200010A6804288D
:103EE00022F0040208BF04320A607047411E00201D
:103EF000B0EB116F1CBF012070474EF21002CEF2E2
:103F0000000251604EF62351CEF20001F0230B70F7
:103F100007219060116070477047000070470000F3
:103F200090F83C20012A4FF0020254D010B580F8DE
:103F30003D200268D2F804E0D2F808C00C682EF0E8
:103F40007003234341F2FF74C4F20004A2425360A1
:103F50000EDC40F2FF73C4F200039A4216DCB2F1A9
:103F6000804F2BD040F20043C4F2000324E000BF96
:103F700040F2FF33C4F201039A4213DC41F600031E
:103F8000C4F200039A4219D0002313E040F6000364
:103F9000C4F200039A4211D040F60043C4F2000379
:103FA0000AE000BF44F20003C4F201039A4205D0C4
:103FB00040F20043C4F201039A4204D149682CF054
:103FC0008003194391600121002280F83D1080F8A0
:103FD0003C20BDE81040104670470000002804BF98
:103FE0000120704710B5044690F83D0028B9002024
:103FF00084F83C00204600F01FF8022084F83D00C1
:104000002068211D03F02AF8012084F8460084F876
:104010003E0084F83F0084F8400084F8410084F8B2
:10402000420084F8430084F8440084F8450084F892
:104030003D00002010BD000080B584B0006841F64E
:104040000001C4F20001884224D044F20001C4F20D
:104050000101884232D00021C4F2010188422BD1F3
:104060000020039043F64400C4F2020001680022DD
:1040700041F0010101600068012100F0010003909E
:1040800003981920FEF74AFF192004B0BDE88040CC
:10409000FEF732BF0020019043F64400C4F2020054
:1040A00050F8041C41F0400140F8041C50F8040C86
:1040B00000F040000190019804B080BD0020029003
:1040C00043F64400C4F20200016841F4803101600B
:1040D000006800F480300290029804B080BD0000B7
:1040E00090F83D1001291CBF01207047022180F883
:1040F0003D10006841F2FF72C168C4F200029042B4
:1041000041F00101C1600DDC40F2FF71C4F2000119
:10411000884215DCB0F1804F2AD040F20041C4F251
:10412000000123E040F2FF31C4F20101884213DCB8
:1041300041F60001C4F20001884219D0002113E0C9
:1041400040F60001C4F20001884211D040F600415F
:10415000C4F200010AE000BF44F20001C4F2010110
:10416000884205D040F20041C4F20101884206D1E4
:10417000816801F00701062904BF0020704701682B
:1041800041F00101016000207047000090F83C20E0
:10419000012A4FF0020200F0C58080B580F83D2072
:1041A000D0F800C04FF67772DCF8083023EA02023C
:1041B000CCF808200B684F2B28DC1F2B44DD202B6C
:1041C00045D0302B43D0402B40F0AE80D1F804E0F6
:1041D000C968DCF82030DCF8202022F00102CCF89D
:1041E0002020DCF8182022F0F00242EA011123F02E
:1041F0000A0242EA0E02CCF81810CCF82020DCF8B3
:10420000081041F0470121F0300180E06F2B27DDDD
:10421000B3F5005F48D0B3F5805F7AD0702B40F0E3
:104220008380D1E901E3C968DCF8082043EA0E0382
:1042300022F47F4243EA01211143CCF80810DCF854
:10424000081041F0770162E00BB1102B6CD1DCF863
:10425000081021F07001194341F0070157E000BF39
:10426000502B35D0602B5FD1D1F804E0C968DCF861
:104270002030DCF8202022F01002CCF82020DCF8DE
:10428000182022F4704242EA013123F0A00242EAEF
:104290000E12CCF81810CCF82020DCF8081041F0F1
:1042A000670121F0100132E0D1E901E3C968DCF8CF
:1042B000082043EA0E0322F47F4243EA012111431E
:1042C000CCF80810DCF8081041F480411FE000BF72
:1042D000D1F804E0C968DCF82030DCF8202022F0B6
:1042E0000102CCF82020DCF8182022F0F00242EA8B
:1042F000011123F00A0242EA0E02CCF81810CCF8A1
:104300002020DCF8081041F0570121F02001CCF802
:1043100008100022012180F83D10002180F83C1097
:10432000BDE88040104670470122F3E7002804BF33
:10433000012070472DE9F047044690F83D000D46F6
:1043400028B9002084F83C00204600F049F80220FB
:1043500084F83D00206844F207028168914381603F
:10436000211D02F07BFE20684FF6FF78816882698C
:10437000D0F820C0D5E9003ED5E9026A43EA010938
:10438000AB6922EA080246EA03234FF6FC46B34330
:10439000D5E9076742EA0A0229691A4342EA062276
:1043A00042EA01112CF0AA026B6942EA0E0241EACC
:1043B000073142EA0312C0F80890816102620120CD
:1043C00084F8460084F83E0084F83F0084F84200F8
:1043D00084F8430084F83D000020BDE8F087000029
:1043E00080B586B0006840F60002C4F200020021E9
:1043F0009042CDE90411CDE90211019122D0B0F132
:10440000804F49D1002043F630010090C4F20201F0
:104410000A6942F001020A610A6902F0010200928F
:10442000009A00900868032240F0010008600868C4
:10443000012100F00100009000980020C4F2020069
:1044400020E000BF43F630000091C4F20200026990
:1044500042F004020261026902F004020092009A32
:10446000009101684FF4405241F00801016000687A
:10447000022100F00800009000980020C4F2020021
:1044800000F540600192022202920022059101A9EA
:10449000CDE90322FEF7D4FA06B080BD80B590F8CE
:1044A0003E2090F83F3090F842E090F843C0042955
:1044B0000AD0B9B9012A4FF0010208BFBEF1010FBD
:1044C00034D0104680BD00BF012B4FF0010208BF61
:1044D000BCF1010FF5D1022180F83F1080F84310A4
:1044E00000681EE0012A4FF0010208BF012BE8D14D
:1044F000BEF1010FE5D1BCF1010FE2D1022280F83B
:104500003E2080F83F2080F8422080F8432091B17F
:104510000068016A21F001010162016A41F00101B4
:10452000016210216FF0100209E000BF022180F843
:104530003E1080F84210006801216FF00102036A0A
:104540001A400262026A114301620168002241F0CE
:1045500001010160104680BD7047000070B504463F
:104560000068C5680669B10716D515F0020113D0B9
:104570006FF002010161012121778069800703D07A
:104580002046FFF7E9FF05E0204600F08FF82046BF
:1045900000F0D0F900202077700719D515F004003D
:1045A00016D020686FF00401016102212177806933
:1045B00010F4407F04D02046FFF7CEFF06E000BF96
:1045C000204600F073F8204600F0B4F90020207770
:1045D000300717D515F0080014D020686FF00801D7
:1045E000016104212177C069800703D02046FFF7CD
:1045F000B3FF05E0204600F059F8204600F09AF994
:1046000000202077F00619D515F0100016D020688C
:104610006FF01001016108212177C06910F4407F1B
:1046200004D02046FFF798FF06E000BF204600F0C8
:104630003DF8204600F07EF900202077F00718BFF3
:1046400015F0010002D1300609D412E020686FF0A5
:1046500001010161204600F0A9FA300609D515F0E4
:10466000800006D020686FF0800101612046FFF7CE
:1046700053FC700609D515F0400006D020686FF095
:1046800040010161204600F0F5FAB00658BF70BD48
:1046900015F0200008D021686FF0200220460A6142
:1046A000BDE87040FFF73ABC70BD000070470000E5
:1046B00090F83C30012B04BF022070474FEAB20251
:1046C000032A00F201812DE9F043DFE802F0033F05
:1046D0007FBF00BF036840F200461C6A1A6A24F0DC
:1046E000020422F001021A621A46D3F804C052F8FA
:1046F00018EF8F6843F48065C4F20106B54244EABE
:10470000070405D1CF6824F00C0427F004073C43CC
:104710000F68B54206D1D1E905582CF440762E43F6
:1047200046EA080C2EF073063743C3F804C09F61B5
:104730004F6809695F631C629F6947F008079F61C2
:104740009F6927F004079F61B2E000BF036840F251
:1047500000481C6A1A6A24F0200422F010021A622F
:104760001A46D3F804C052F818EF8F6843F48065F6
:10477000C4F20108454544EA071407D1CF686FF039
:10478000400624F0C00406EA07163443D1F800902E
:10479000454506D1D1E905562CF440672E4347EA3A
:1047A000860C2EF4E64747EA0927C3F804C09F6148
:1047B0004F6809699F631C629F6947F400679F61A6
:1047C0009F6927F480679F6171E000BF036840F232
:1047D00000481C6A1A6A24F4007422F480721A6277
:1047E0001A46D3F804C052F81CEF8F6843F4806572
:1047F000C4F20108454544EA072408D1CF6840F2D5
:10480000FF463F0224F4406427EA06063443D1F809
:104810000090454506D1D1E905562CF440572E436A
:1048200047EA061C2EF0730747EA0907C3F804C0DD
:10483000DF614F680969DF631C62DF6947F00807C1
:10484000DF61DF6927F00407DF6131E0036840F2D0
:104850000045D3F820C01A6A43F4806722F48052DE
:104860001A621A465C6852F81CEFD1F800808E6814
:10487000C4F20105AF4204D14D6924F4804444EAF6
:1048800085142CF4005747EA06372EF4E64646EA2C
:1048900008265C60DE614E6809691E641F62DF697C
:1048A00047F40067DF61DF6927F48067DF61090291
:1048B0001368194311600021BDE8F043002280F81D
:1048C0003C200846704700BF0121002280F83C20B0
:1048D00008467047002804BF0120704710B5044601
:1048E00090F83D0028B9002084F83C00204600F0F4
:1048F0001FF8022084F83D002068211D02F0AEFB65
:10490000012084F8460084F83E0084F83F0084F8D3
:10491000400084F8410084F8420084F8430084F8A1
:10492000440084F8450084F83D00002010BD0000DC
:10493000704700007047000041B1082910D00429D9
:1049400014BF00F1410200F13F020BE090F83E205D
:10495000012A1CBF01207047022280F83E2013E08C
:1049600000F140021278012A1CBF01207047022288
:10497000082907D0042914BF80F8412080F83F207F
:1049800002E000BF80F84020006801F01F01012212
:10499000036A02FA01F123EA01020262026A114388
:1049A00041F2FF72C4F200029042016210DC40F258
:1049B000FF71C4F2000188421CDCB0F1804F3FD08F
:1049C00040F20041C4F20001884239D03DE000BF0E
:1049D00040F2FF31C4F20101884219DC41F60001C6
:1049E000C4F2000188422BD00021C4F201018842A8
:1049F0001AD02AE040F60001C4F2000188421FD01C
:104A000040F60041C4F20001884219D01DE000BF09
:104A100044F20001C4F20101884211D040F2004189
:104A2000C4F20101884210D1416C40F2004340F4CD
:104A30008062C4F2010341F400419A42416404D10E
:104A4000816801F00701062903D0016841F00101E6
:104A5000016000207047000041B1082916D00429E8
:104A600014BF00F1410200F13F0211E090F83E2036
:104A7000012A1CBF01207047022280F83E204FEA25
:104A8000B103032B4FF0010216D81FE000F14002E2
:104A90001278012A1CBF01207047022208290DD07C
:104AA000042914BF80F8412080F83F204FEAB10369
:104AB000032B4FF0010209D91046704780F84020BF
:104AC0004FEAB103032B4FF00102F5D84AF6FC1C64
:104AD0000068C0F6000C5CF823C0C36801F01F0139
:104AE00043EA0C03C360036A02FA01F123EA0102FC
:104AF0000262026A114341F2FF72C4F20002904264
:104B000001620FDC40F2FF71C4F2000188421BDC3D
:104B1000B0F1804F3ED040F20041C4F20001884223
:104B200038D03CE040F2FF31C4F20101884219DC88
:104B300041F60001C4F2000188422BD00021C4F2EA
:104B4000010188421AD02AE040F60001C4F20001B7
:104B500088421FD040F60041C4F20001884219D0BB
:104B60001DE000BF44F20001C4F20101884211D0EF
:104B700040F20041C4F20101884210D1416C40F280
:104B8000004340F48062C4F2010341F400419A42C0
:104B9000416404D1816801F00701062903D001684E
:104BA00041F00101016000221046704700680021B9
:104BB000C4F20101884218BF704710B540F294302A
:104BC000C2F20000006847F23153426A416A40F283
:104BD000A4049A42C2F2000404D34FF6FF70081AEC
:104BE00005E000BF47F22F52914201D8406AE061D0
:104BF0002420C4F200000021016040F2DC31C2F246
:104C00000001096847F230534A6A9A4202D94FF6C6
:104C1000FF7205E04A6A47F22F539A4203D80022F6
:104C2000496A511A21620021C0F80018D4E907210D
:104C30000EA0C4E9051203F067FAD4E90312206854
:104C40000132226140F21802012904BF01302060C4
:104C5000C2F20002616812685143884203DB0020FF
:104C600020600120A060BDE81040704725642C251D
:104C7000640A000070470000002804BF012070474C
:104C800010B5044690F8410028B9002084F840008F
:104C9000204600F021F8242084F841002068C168F3
:104CA00021F40051C160204602F07EFA20680169BB
:104CB00021F490410161416921F02A014161C168FB
:104CC00041F40051C16000202021606484F841104B
:104CD00084F84210606310BD80B586B0006844F669
:104CE000FF31C4F2000188424FF000010591CDE987
:104CF0000311CDE901112FDC44F20041C4F200019F
:104D0000884259D044F60001C4F20001884240F0C4
:104D10009980002043F630010090C4F202010A6934
:104D200042F480220A610A6902F480220092009A09
:104D30000090086840F0080008600868072100F04B
:104D40000800009000984FF4407001900020C4F2D9
:104D5000020000F540606BE041F20001C4F2010185
:104D6000884245D044F60041C4F20001884269D12E
:104D7000002043F630010090C4F202010A6942F4B7
:104D800000220A610A6902F400220092009A00904F
:104D9000086840F0040008600868082100F004007A
:104DA000009000984FF4406001900020C4F202008F
:104DB00000F500603CE000BF002043F630010090A9
:104DC000C4F202010A6942F400320A610A6902F47B
:104DD00000320092009A0090086840F001000860DC
:104DE000086800F00100009000980C201BE000BF54
:104DF000002043F630010090C4F202014A6942F0FB
:104E000010024A614A6902F010020092009A009072
:104E1000086840F001000860086800F00100009098
:104E200000984FF4C060019000200721C4F20200F6
:104E300002220292002203920322CDE9042101A959
:104E4000FDF7FEFD06B080BD2DE9F041044690F867
:104E5000410020281CBF0220BDE8F0810D4600293A
:104E60004FF0010000F0AA801646002A08BFBDE8F6
:104E7000F081002060642120984684F84100FDF70D
:104E8000C3FEA684E684A1680646B1F5805F02D120
:104E90002069002862D02F460025E08C002861D0D0
:104EA00018F1010018D0B8F1000F37D1216808E0DF
:104EB00017F8010B4860E08C0138E084E08C002892
:104EC00051D00868000673D5002FF1D135F8020BD8
:104ED00000276FF35F20EDE7216802E00868000615
:104EE00009D40868000606D4086800065CBF086894
:104EF0005FEA0060F2D51FB117F8010B05E000BFB3
:104F000035F8020B00276FF35F204860E08C013812
:104F1000E084E08C0028E4D125E000BF216800BFD8
:104F20000868000608D4FDF76FFE801B404541D895
:104F30002168C868F4E700BF17B117F8010B04E057
:104F400035F8020B00276FF35F204860E08C0138D2
:104F5000E084E08C0028E3D105E000BF0027E08C6E
:104F600000289DD12168086840061FD4B8F1000FC1
:104F70001ED018F101000FD10868400616D4086849
:104F8000400613D40868400610D4086840064FF065
:104F90000000F1D50FE000BFFDF736FE801B404555
:104FA00008D82068C16800684006F5D5002002E0F6
:104FB000FDF72AFE0320202184F84110BDE8F0818E
:104FC000FEE7000000000000F0B581B02DED0A8B77
:104FD00040F2C806C2F20006B6F90600B6F908109B
:104FE000B6F90A2000EE100AB8EEC03A00EE101A28
:104FF000B8EEC04A00EE102AB8EEC05A23EE040AFA
:1050000020EE050AB5EE400AF1EE10FA04D1BDEC2F
:105010000A8B01B0F0BD00BF64EE041A63EE032AF0
:1050200072EEA11A65EE052A72EEA11AF1EEE11AEE
:10503000B6F90400B6F9001002EE900AB6F90200C3
:1050400040F2300703EE900A04EE901ADFEDB85AF2
:10505000C2F20007F8EEE22AF8EEE33AF8EEE44A8C
:1050600096ED050A84EE214A83EE213A85EE215A17
:1050700096ED041A96ED032A64EEA54A63EEA53A6E
:1050800062EEA52AD7ED005A20EE027A61EE251ACB
:1050900020EE016A37EE617A62EE251A62EE020AAC
:1050A00036EE216A65EEA51A71EEE00A61EE011A8C
:1050B00070EEE10A60EE001A36EE066A71EEA00AA2
:1050C00037EE077A64EE206A60EE830A27EE044A20
:1050D00023EE063A66EE051A33EE443A9FED954A02
:1050E00076EEE11A96ED066A25EE075A21EE847AED
:1050F00035EE605A37EE066A96ED077A65EE040AD9
:1051000030EE877AD6ED080A23EE044A34EE204AC0
:10511000F3EE020A61EEA01A25EE205A71EEA41AEF
:1051200035EE235A23EE203A71EE861A35EE075AF1
:1051300033EE223A33EE043A65EE010A62EE612A5A
:1051400072EEE00A60EE032ADFED7B3A70EEE20ACF
:1051500060EEA30A75EEA00A63EE012A60EEA14A92
:1051600074EEA22A60EE054A72EEE42A62EEA32AE9
:1051700032EE222A63EE022A60EE854A74EEE22ABB
:1051800060EE214A74EEA22A62EEA32A31EE221AC0
:1051900025EE025A20EE833A33EE053A21EE215AEB
:1051A00033EE453A23EE233A30EE030A22EE023A7A
:1051B00020EEA05A35EE033A21EE015A35EE033ABD
:1051C00020EE005A35EE033AB1EEC33AB8EE009A3B
:1051D00086ED066A86ED077A86ED084A80EE835AE8
:1051E00082EE032A81EE031A80EE030A35EE053AB9
:1051F00086ED032A22EE092A86ED041A86ED050AB9
:1052000021EE031A22EE000A30EE010A10EE100A17
:1052100087ED005AFBF7FCF941EC100B02F0B0FFF0
:1052200051EC100B9FED400B54EC105B2A462346CB
:10523000FBF7B7F8FBF7FFF996ED04BA97ED001A04
:1052400096ED03AA96ED050A3BEE0BCA31EE011A64
:1052500021EE0A1A2CEE000A30EE010A706210EEFE
:10526000100AFBF7D5F92AEE090A2BEE0C1A20EEEC
:105270000A0A30EE410AB7EE00AA30EE0A0A41EC03
:10528000180B10EE100AFBF7C3F941EC110BB0EE4E
:10529000480AF0EE680A03F08FFA51EC100B2A4628
:1052A0002346FBF77EF8FBF7C6F996ED030A97ED68
:1052B000001A96ED04BA96ED05CA30EE000A31EEFA
:1052C000011A21EE0C1A20EE0B0A30EE010AB06230
:1052D00010EE100AFBF79CF92BEE090A2CEE091AC6
:1052E0002CEE011A20EE0B0A30EE010A30EE0A0A0B
:1052F00041EC180B10EE100AFBF78AF941EC110B88
:10530000B0EE480AF0EE680A03F056FA51EC100BC2
:105310002A462346FBF745F8FBF78DF9F062BDEC12
:105320000A8B01B0F0BD00BF00000020DCA54C409E
:1053300089A18B3A6F12033C0AD7A33B2DE9F04FAA
:1053400081B040F28C59C2F200090446B9F800005D
:10535000B9F802100138013940F6184782B28BB211
:1053600000200021C4F2020700F046FC4FF4800345
:105370004FF0800A3B60C7F800A0B9F802C0BCF14A
:10538000000F30D043F20005B9F80010C4F2010557
:10539000260A00204FF0400B04E000BF002101303E
:1053A000604520D20029F9D04FF00008009000BFDE
:1053B000284631463B60C7F800A001F01BFDE1B272
:1053C000284601F017FDC7F800B0B9F8001008F141
:1053D00001084FF480038845EAD3B9F802C0009869
:1053E00001306045DED34020386001B0BDE8F08F69
:1053F00070B502460B4600F0FFFB40F27410C2F29B
:10540000000040F618460588C4F202064FF48000FA
:1054100043F2000430608020C4F201043060290AA5
:10542000204601F0E7FCE9B2204601F0E3FC402011
:10543000306070BD2DE9F04F81B040F6184543F261
:105440000009C4F20205C4F2010901F039FC4FF66B
:105450000004CFF6FF744FF4801028516420FDF74C
:10546000DBFA102028513220FDF7D6FA4FF4800BDA
:105470004FF4000448461121C5F800B02C6001F03B
:10548000B9FC4FF0400A7820C5F800A0FDF7C4FA37
:105490004846B121C5F800B02C6001F0ABFC4FF0DC
:1054A000800848460121C5F800A0C5F800B0C5F83D
:1054B000008001F09FFC48462C21C5F800A0C5F8EB
:1054C00000B0C5F8008001F095FC48462D21C5F8D4
:1054D00000A0C5F800B0C5F8008001F08BFC48467C
:1054E000B221C5F800A0C5F800B02C6001F082FC24
:1054F00048460121C5F800A0C5F800B0C5F80080F5
:1055000001F078FC48462C21C5F800A0C5F800B091
:10551000C5F8008001F06EFC48462D21C5F800A0BA
:10552000C5F800B0C5F8008001F064FC4846B3211E
:10553000C5F800A0C5F800B02C6001F05BFC48463F
:105540000121C5F800A0C5F800B0C5F8008001F041
:1055500051FC48462C21C5F800A0C5F800B0C5F89C
:10556000008001F047FC48462D21C5F800A0C5F891
:1055700000B0C5F8008001F03DFC48460121C5F8A7
:1055800000A0C5F800B0C5F8008001F033FC484623
:105590002C21C5F800A0C5F800B0C5F8008001F0C6
:1055A00029FC48462D21C5F800A0C5F800B0C5F873
:1055B000008001F01FFC4846B421C5F800A0C5F8E2
:1055C00000B02C6001F016FC48460721C5F800A089
:1055D000C5F800B0C5F8008001F00CFC4846C021B9
:1055E000C5F800A0C5F800B02C6001F003FC4846E7
:1055F000A221C5F800A0C5F800B0C5F8008001F0F0
:10560000F9FB48460221C5F800A0C5F800B0C5F86E
:10561000008001F0EFFB48468421C5F800A0C5F8E2
:1056200000B0C5F8008001F0E5FB4846C121C5F88F
:1056300000A0C5F800B02C6001F0DCFB4846C52195
:10564000C5F800A0C5F800B0C5F8008001F0D2FB95
:105650004846C221C5F800A0C5F800B02C6001F092
:10566000C9FB48460A21C5F800A0C5F800B0C5F836
:10567000008001F0BFFB48460021C5F800A0C5F836
:1056800000B0C5F8008001F0B5FB4846C321C5F85D
:1056900000A0C5F800B02C6001F0ACFB48468A21A0
:1056A000C5F800A0C5F800B0C5F8008001F0A2FB65
:1056B00048462A21C5F800A0C5F800B0C5F800800A
:1056C00001F098FB4846C421C5F800A0C5F800B019
:1056D0002C6001F08FFB48468A21C5F800A0C5F870
:1056E00000B0C5F8008001F085FB4846EE21C5F802
:1056F00000A0C5F800B0C5F8008001F07BFB48466B
:10570000C521C5F800A0C5F800B02C6001F072FBFF
:1057100048460E21C5F800A0C5F800B0C5F80080C5
:1057200001F068FB48463621C5F800A0C5F800B076
:105730002C6001F05FFB4846C021C5F800A0C5F809
:1057400000B0C5F8008001F055FB4846E021C5F8DF
:1057500000A0C5F800B02C6001F04CFB48460F21BA
:10576000C5F800A0C5F800B0C5F8008001F042FB04
:1057700048461A21C5F800A0C5F800B0C5F8008059
:1057800001F038FB48460F21C5F800A0C5F800B06D
:10579000C5F8008001F02EFB48461821C5F800A08E
:1057A000C5F800B0C5F8008001F024FB48462F2161
:1057B000C5F800A0C5F800B0C5F8008001F01AFBDC
:1057C00048462821C5F800A0C5F800B0C5F80080FB
:1057D00001F010FB48462021C5F800A0C5F800B034
:1057E000C5F8008001F006FB48462221C5F800A05C
:1057F000C5F800B0C5F8008001F0FCFA48461F214A
:10580000C5F800A0C5F800B0C5F8008001F0F2FAB4
:1058100048461B21C5F800A0C5F800B0C5F80080B7
:1058200001F0E8FA48462321C5F800A0C5F800B009
:10583000C5F8008001F0DEFA48463721C5F800A01F
:10584000C5F800B0C5F8008001F0D4FA4846002140
:10585000C5F800A0C5F800B0C5F8008001F0CAFA8C
:1058600048460721C5F800A0C5F800B0C5F800807B
:1058700001F0C0FA48460221C5F800A0C5F800B002
:10588000C5F8008001F0B6FA48461021C5F800A01E
:10589000C5F800B0C5F8008001F0ACFA4846E12137
:1058A000C5F800A0C5F800B02C6001F0A3FA484686
:1058B0000F21C5F800A0C5F800B0C5F8008001F0C0
:1058C00099FA48461B21C5F800A0C5F800B0C5F8F4
:1058D000008001F08FFA48460F21C5F800A0C5F8F6
:1058E00000B0C5F8008001F085FA48461721C5F8D8
:1058F00000A0C5F800B0C5F8008001F07BFA48466A
:105900003321C5F800A0C5F800B0C5F8008001F04B
:1059100071FA48462C21C5F800A0C5F800B0C5F8BA
:10592000008001F067FA48462921C5F800A0C5F8B3
:1059300000B0C5F8008001F05DFA48462E21C5F898
:1059400000A0C5F800B0C5F8008001F053FA484641
:105950003021C5F800A0C5F800B0C5F8008001F0FE
:1059600049FA48463021C5F800A0C5F800B0C5F88E
:10597000008001F03FFA48463921C5F800A0C5F87B
:1059800000B0C5F8008001F035FA48463F21C5F85F
:1059900000A0C5F800B0C5F8008001F02BFA484619
:1059A0000021C5F800A0C5F800B0C5F8008001F0DE
:1059B00021FA48460721C5F800A0C5F800B0C5F88F
:1059C000008001F017FA48460321C5F800A0C5F889
:1059D00000B0C5F8008001F00DFA48461021C5F866
:1059E00000A0C5F800B0C5F8008001F003FA4846F1
:1059F0002A21C5F800A0C5F800B02C6001F0FAF922
:105A000048460021C5F800A0C5F800B0C5F80080E0
:105A100001F0F0F948460021C5F800A0C5F800B033
:105A2000C5F8008001F0E6F948460021C5F800A05D
:105A3000C5F800B0C5F8008001F0DCF948467F21C8
:105A4000C5F800A0C5F800B0C5F8008001F0D2F993
:105A500048462B21C5F800A0C5F800B02C602B27C4
:105A600001F0C8F948460021C5F800A0C5F800B00B
:105A7000C5F8008001F0BEF948460021C5F800A035
:105A8000C5F800B0C5F8008001F0B4F9484600211F
:105A9000C5F800A0C5F800B0C5F8008001F0AAF96B
:105AA00048469F21C5F800A0C5F800B0C5F80080A1
:105AB00001F0A0F94846F021C5F800A0C5F800B0F3
:105AC0002C6001F097F948460121C5F800A0C5F8FF
:105AD00000B0C5F8008001F08DF94846F621C5F800
